:020000040000FA
:100000000C945D000C9485000C9485000C94850084
:100010000C9485000C9485000C9485000C9485004C
:100020000C9485000C9485000C9485000C9485003C
:100030000C9485000C9485000C9485000C9485002C
:100040000C94BB030C9485000C9489030C946303FB
:100050000C9485000C9485000C9485000C9485000C
:100060000C9485000C9485000000000024002700FB
:100070002A0000000000250028002B0004040404CE
:100080000404040402020202020203030303030342
:10009000010204081020408001020408102001021F
:1000A00004081020000000080002010000030407FB
:1000B00000000000000000004E0511241FBECFEF1D
:1000C000D8E0DEBFCDBF11E0A0E0B1E0E2ECFFE0A0
:1000D00002C005900D92A233B107D9F721E0A2E347
:1000E000B1E001C01D92A03EB207E1F710E0CDE5FE
:1000F000D0E004C02197FE010E94D907CC35D1077A
:10010000C9F70E9405040C94DF070C940000AF921D
:10011000BF92CF92DF92EF92FF920F931F93CF93F4
:10012000DF936C017B018B01040F151FEB015E0156
:10013000AE18BF08C017D10759F06991D601ED91EB
:10014000FC910190F081E02DC6010995892B79F78A
:10015000C501DF91CF911F910F91FF90EF90DF903C
:10016000CF90BF90AF900895FC01538D448D252F03
:1001700030E0842F90E0821B930B541710F0CF9641
:10018000089501970895FC01918D828D981761F073
:10019000A28DAE0FBF2FB11D5D968C91928D9F5F8A
:1001A0009F73928F90E008958FEF9FEF0895FC0169
:1001B000918D828D981731F0828DE80FF11D858D1C
:1001C00090E008958FEF9FEF0895FC01918D228DAF
:1001D000892F90E0805C9F4F821B91098F73992734
:1001E000089583E491E00E94E50021E0892B09F461
:1001F00020E0822F089580E090E0892B29F00E9472
:10020000F10081110C9400000895FC01A48DA80F49
:10021000B92FB11DA35ABF4F2C91848D90E0019648
:100220008F739927848FA689B7892C93A089B18968
:100230008C91837080648C93938D848D981306C009
:100240000288F389E02D80818F7D80830895EF926D
:10025000FF920F931F93CF93DF93EC0181E0888F80
:100260009B8D8C8D98131AC0E889F989808185FF50
:1002700015C09FB7F894EE89FF896083E889F989F2
:1002800080818370806480839FBF81E090E0DF91F4
:10029000CF911F910F91FF90EF900895F62E0B8D47
:1002A00010E00F5F1F4F0F731127E02E8C8D8E1102
:1002B0000CC00FB607FCFACFE889F989808185FF69
:1002C000F5CFCE010E940501F1CFEB8DEC0FFD2F94
:1002D000F11DE35AFF4FF0829FB7F8940B8FEA8924
:1002E000FB8980818062CFCFCF93DF93EC01888D33
:1002F0008823B9F0AA89BB89E889F9898C9185FDA1
:1003000003C0808186FD0DC00FB607FCF7CF8C912E
:1003100085FFF2CF808185FFEDCFCE010E940501E0
:10032000E9CFDF91CF91089590E0FC01EC55FF4FAC
:100330002491FC01E057FF4F3491FC01E458FF4F3A
:10034000E491EE23C9F0222339F0233001F1A8F41F
:10035000213019F1223029F1F0E0EE0FFF1FEE58A5
:10036000FF4FA591B4918FB7F894EC91611126C01D
:1003700030953E233C938FBF08952730A9F0283055
:10038000C9F0243049F7809180008F7D03C08091AF
:1003900080008F7780938000DFCF84B58F7784BD16
:1003A000DBCF84B58F7DFBCF8091B0008F778093BA
:1003B000B000D2CF8091B0008F7DF9CF3E2BDACF45
:1003C000CF93DF9390E0FC01E057FF4F24918458D6
:1003D0009F4FFC0184918823D1F090E0880F991FF2
:1003E000FC01E859FF4FA591B491FC01EE58FF4F75
:1003F000C591D49161110EC09FB7F8948C91E22FF2
:10040000E0958E238C932881E223E8839FBFDF91C0
:10041000CF9108958FB7F894EC91E22BEC938FBFB6
:10042000F6CF3FB7F8948091370190913801A091B1
:100430003901B0913A0126B5A89B05C02F3F19F0AC
:100440000196A11DB11D3FBFBA2FA92F982F882754
:10045000BC01CD01620F711D811D911D42E0660F2F
:10046000771F881F991F4A95D1F70895FC010190C5
:100470000020E9F73197AF01481B590BBC0183E419
:1004800091E00C9487008F929F92AF92BF920F934E
:100490001F93CF93DF93CDB7DEB7A1970FB6F89434
:1004A000DEBF0FBECDBF19A2423008F44AE08E0174
:1004B0000F5D1F4F842E912CB12CA12CA50194010E
:1004C0000E94B707E62FB901CA01EA30F4F4E05DF3
:1004D000D801EE938D01232B242B252B79F790E067
:1004E00080E0109719F0CD010E943602A1960FB658
:1004F000F894DEBF0FBECDBFDF91CF911F910F915A
:10050000BF90AF909F908F900895E95CE1CF4F929C
:100510005F926F927F928F929F92AF92BF92CF9293
:10052000DF92EF92FF920F931F93CF936B017C01A9
:10053000742EAC019B010E94B207882399F082E1DE
:1005400091E0CF911F910F91FF90EF90DF90CF90AE
:10055000BF90AF909F908F907F906F905F904F90E3
:100560000C94360246015701E894B7F82FEF3FEF9D
:100570004FE75FE7C501B4010E94B20781110DC0CA
:100580002FEF3FEF4FE75FE7C501B4010E94E80599
:1005900018161CF486E191E0D4CF2FEF3FEF4FE720
:1005A0005FE4C701B6010E94400718161CF48AE1F7
:1005B00091E0C7CF2FEF3FEF4FE75FECC701B601E8
:1005C0000E94E80587FDF3CF20E030E0A901C701D4
:1005D000B6010E94E80510E000E087FF0AC06DE266
:1005E00083E491E00E9427018C01F7FAF094F7F878
:1005F000F094C0E060E070E080E09FE37C1641F0A2
:1006000020E030E040E251E40E94ED05CF5FF6CFFC
:10061000A70196010E947C052B013C010E945F0608
:100620004B015C014AE00E9443027C01E00EF11E96
:10063000CC23C1F1C501B4010E948E069B01AC011F
:10064000C301B2010E947B054B015C016EE283E4B1
:1006500091E00E942701E80EF91EC15018F120E038
:1006600030E040E251E4C501B4010E9445072B018E
:100670003C010E945F064B01B12CA12C4AE0C50150
:10068000B4010E944302E80EF91EC501B4010E94A4
:100690008E069B01AC01C301B2010E947B054B0198
:1006A0005C01DBCFC701CF911F910F91FF90EF90BD
:1006B000DF90CF90BF90AF909F908F907F906F9082
:1006C0005F904F9008951F920F920FB60F921124D2
:1006D0002F933F934F935F936F937F938F939F934A
:1006E000AF93BF93EF93FF9383E491E00E940501E2
:1006F000FF91EF91BF91AF919F918F917F916F91FA
:100700005F914F913F912F910F900FBE0F901F90CF
:1007100018951F920F920FB60F9211242F938F935B
:100720009F93EF93FF93E0915301F09154018081E7
:10073000E0915901F0915A0182FD1BC09081809196
:100740005C018F5F8F7320915D01821741F0E09112
:100750005C01F0E0ED5BFE4F958F80935C01FF91B3
:10076000EF919F918F912F910F900FBE0F901F903F
:1007700018958081F4CF1F920F920FB60F9211241B
:100780002F933F938F939F93AF93BF9380913301A8
:1007900090913401A0913501B09136013091320130
:1007A00023E0230F2D3758F50196A11DB11D20938D
:1007B00032018093330190933401A0933501B093BB
:1007C00036018091370190913801A0913901B091A3
:1007D0003A010196A11DB11D809337019093380114
:1007E000A0933901B0933A01BF91AF919F918F913E
:1007F0003F912F910F900FBE0F901F90189526E8F4
:10080000230F0296A11DB11DD2CF789484B58260CA
:1008100084BD84B5816084BD85B5826085BD85B5A4
:10082000816085BD80916E00816080936E00109222
:10083000810080918100826080938100809181009D
:10084000816080938100809180008160809380002E
:100850008091B10084608093B1008091B00081608C
:100860008093B00080917A00846080937A008091B8
:100870007A00826080937A0080917A008160809310
:100880007A0080917A00806880937A001092C1008B
:10089000E0915301F091540182E08083E0914F0197
:1008A000F09150011082E0915101F09152018FECD2
:1008B000808310925B01E0915701F091580186E02E
:1008C0008083E0915501F0915601808180618083A1
:1008D000E0915501F0915601808188608083E0911C
:1008E0005501F0915601808180688083E091550127
:1008F000F091560180818F7D808360E08EE00E94C0
:10090000E00161E08DE00E94E00161E08CE00E9486
:10091000E00161E08BE00E94E00110E4C0E0D0E083
:1009200010937C0080917A00806480937A0080919B
:100930007A0086FDFCCF8091780060917900762F57
:10094000682F072E000C880B990B0E94900660936D
:100950003F0170934001809341019093420120E058
:1009600030E04AEF53E40E94450720E030EC4FE7C7
:1009700054E40E94ED0560933B0170933C01809329
:100980003D0190933E018EE191E00E94360260911C
:100990003F0170914001809141019091420142E0FC
:1009A0000E94870285E291E00E94360260913B013D
:1009B00070913C0180913D0190913E0142E00E9486
:1009C00087028EE291E00E9436020E9411024B01E2
:1009D0005C0188EEC82E83E0D82EE12CF12C0E9419
:1009E0001102681979098A099B09683E73408105DB
:1009F0009105A8F321E0C21AD108E108F10888EEB8
:100A0000880E83E0981EA11CB11CC114D104E1041E
:100A1000F10429F7C0903B01D0903C01E0903D01EA
:100A2000F0903E0120E030E040E752E4C701B6011B
:100A30000E94400718165CF461E08BE00E9494016C
:100A400060E08CE00E94940160E08DE014C020E042
:100A500030E048ED51E4C701B6010E94E80561E0CD
:100A600087FF16C08DE00E94940160E08CE00E9438
:100A7000940160E08BE00E949401209709F450CF2C
:100A80000E94F100882309F44BCF0E94000048CF58
:100A90008CE00E94940160E08BE0D4CFE3E4F1E0CD
:100AA0001382128288EE93E0A0E0B0E08483958305
:100AB000A683B78384E091E09183808385EC90E006
:100AC0009587848784EC90E09787868780EC90E018
:100AD000918B808B81EC90E0938B828B82EC90E009
:100AE000958B848B86EC90E0978B868B118E128E83
:100AF000138E148E08955058BB27AA270E94930581
:100B00000C9406070E94F80638F00E94FF0620F0B9
:100B100039F49F3F19F426F40C94F5060EF4E09591
:100B2000E7FB0C94EF06E92F0E94170758F3BA175A
:100B3000620773078407950720F079F4A6F50C94F3
:100B400039070EF4E0950B2EBA2FA02D0B01B90139
:100B500090010C01CA01A0011124FF27591B99F033
:100B6000593F50F4503E68F11A16F040A22F232F3F
:100B7000342F4427585FF3CF469537952795A7958F
:100B8000F0405395C9F77EF41F16BA0B620B730B36
:100B9000840BBAF09150A1F0FF0FBB1F661F771FA7
:100BA000881FC2F70EC0BA0F621F731F841F48F45C
:100BB000879577956795B795F7959E3F08F0B0CFE5
:100BC0009395880F08F09927EE0F979587950895CC
:100BD0000E94CB0608F481E008950E9401060C945F
:100BE00006070E94FF0658F00E94F80640F029F41C
:100BF0005F3F29F00C94EF0651110C943A070C94C6
:100C0000F5060E94170768F39923B1F3552391F372
:100C1000951B550BBB27AA2762177307840738F06B
:100C20009F5F5F4F220F331F441FAA1FA9F335D0C8
:100C30000E2E3AF0E0E832D091505040E695001C7C
:100C4000CAF72BD0FE2F29D0660F771F881FBB1F36
:100C5000261737074807AB07B0E809F0BB0B802D14
:100C6000BF01FF2793585F4F3AF09E3F510578F040
:100C70000C94EF060C943A075F3FE4F3983ED4F3EC
:100C8000869577956795B795F7959F5FC9F7880F14
:100C9000911D9695879597F90895E1E0660F771F66
:100CA000881FBB1F621773078407BA0720F0621BF7
:100CB000730B840BBA0BEE1F88F7E09508950E9422
:100CC0001F0788F09F5798F0B92F9927B751B0F0B8
:100CD000E1F0660F771F881F991F1AF0BA95C9F7C0
:100CE00014C0B13091F00E943907B1E008950C941E
:100CF0003907672F782F8827B85F39F0B93FCCF3D1
:100D0000869577956795B395D9F73EF4909580953C
:100D1000709561957F4F8F4F9F4F0895E89409C05C
:100D200097FB3EF490958095709561957F4F8F4F1E
:100D30009F4F9923A9F0F92F96E9BB279395F69534
:100D4000879577956795B795F111F8CFFAF4BB0FB2
:100D500011F460FF1BC06F5F7F4F8F4F9F4F16C016
:100D6000882311F096E911C0772321F09EE8872FA0
:100D7000762F05C0662371F096E8862F70E060E05C
:100D80002AF09A95660F771F881FDAF7880F9695D5
:100D9000879597F90895990F0008550FAA0BE0E879
:100DA000FEEF16161706E807F907C0F0121613062D
:100DB000E407F50798F0621B730B840B950B39F46D
:100DC0000A2661F0232B242B252B21F408950A26D3
:100DD00009F4A140A6958FEF811D811D089597F913
:100DE0009F6780E870E060E008959FEF80EC0895D1
:100DF00000240A94161617061806090608950024FA
:100E00000A9412161306140605060895092E039473
:100E1000000C11F4882352F0BB0F40F4BF2B11F4E7
:100E200060FF04C06F5F7F4F8F4F9F4F089557FD46
:100E30009058440F551F59F05F3F71F04795880F48
:100E400097FB991F61F09F3F79F0879508951216DF
:100E500013061406551FF2CF4695F1DF08C016168B
:100E600017061806991FF1CF86957105610508943C
:100E70000895E894BB2766277727CB0197F9089553
:100E80000E94CB0608F48FEF08950E9458070C9437
:100E900006070E94F80638F00E94FF0620F095230E
:100EA00011F00C94EF060C94F50611240C943A07FB
:100EB0000E94170770F3959FC1F3950F50E0551FDF
:100EC000629FF001729FBB27F00DB11D639FAA279F
:100ED000F00DB11DAA1F649F6627B00DA11D661FEE
:100EE000829F2227B00DA11D621F739FB00DA11D0F
:100EF000621F839FA00D611D221F749F3327A00DC9
:100F0000611D231F849F600D211D822F762F6A2F64
:100F100011249F5750409AF0F1F088234AF0EE0FC9
:100F2000FF1FBB1F661F771F881F91505040A9F7F6
:100F30009E3F510580F00C94EF060C943A075F3FFA
:100F4000E4F3983ED4F3869577956795B795F79532
:100F5000E7959F5FC1F7FE2B880F911D96958795AA
:100F600097F908950E94CB06880B990B0895A1E28A
:100F70001A2EAA1BBB1BFD010DC0AA1FBB1FEE1F13
:100F8000FF1FA217B307E407F50720F0A21BB30B5E
:100F9000E40BF50B661F771F881F991F1A9469F7DA
:100FA00060957095809590959B01AC01BD01CF0136
:100FB0000895EE0FFF1F0590F491E02D0994F89429
:100FC000FFCF0000000027018700B4007401E50096
:100FD000C300D7006E616E00696E66006F766600B2
:100FE000646174613A20002C20737568753A2000A2
:040FF0000D0A0000E6
:107E0000112484B714BE81FFF0D085E080938100F7
:107E100082E08093C00088E18093C10086E0809377
:107E2000C20080E18093C4008EE0C9D0259A86E02C
:107E300020E33CEF91E0309385002093840096BBD3
:107E4000B09BFECF1D9AA8958150A9F7CC24DD24C4
:107E500088248394B5E0AB2EA1E19A2EF3E0BF2EE7
:107E6000A2D0813461F49FD0082FAFD0023811F036
:107E7000013811F484E001C083E08DD089C08234E0
:107E800011F484E103C0853419F485E0A6D080C0E4
:107E9000853579F488D0E82EFF2485D0082F10E0AE
:107EA000102F00270E291F29000F111F8ED06801E7
:107EB0006FC0863521F484E090D080E0DECF843638
:107EC00009F040C070D06FD0082F6DD080E0C81688
:107ED00080E7D80618F4F601B7BEE895C0E0D1E017
:107EE00062D089930C17E1F7F0E0CF16F0E7DF06D8
:107EF00018F0F601B7BEE89568D007B600FCFDCFD4
:107F0000A601A0E0B1E02C9130E011968C91119780
:107F100090E0982F8827822B932B1296FA010C0160
:107F200087BEE89511244E5F5F4FF1E0A038BF0790
:107F300051F7F601A7BEE89507B600FCFDCF97BE46
:107F4000E89526C08437B1F42ED02DD0F82E2BD052
:107F50003CD0F601EF2C8F010F5F1F4F84911BD097
:107F6000EA94F801C1F70894C11CD11CFA94CF0C13
:107F7000D11C0EC0853739F428D08EE10CD085E9AC
:107F80000AD08FE07ACF813511F488E018D01DD067
:107F900080E101D065CF982F8091C00085FFFCCF94
:107FA0009093C60008958091C00087FFFCCF809118
:107FB000C00084FD01C0A8958091C6000895E0E648
:107FC000F0E098E1908380830895EDDF803219F02E
:107FD00088E0F5DFFFCF84E1DECF1F93182FE3DFCA
:107FE0001150E9F7F2DF1F91089580E0E8DFEE27F6
:047FF000FF270994CA
:027FFE00040479
:00000001FF
