:100000000C945C000C946E000C946E000C946E00CA
:100010000C946E000C946E000C946E000C946E00A8
:100020000C946E000C946E000C946E000C946E0098
:100030000C946E000C946E000C946E000C946E0088
:100040000C94D6000C946E000C946E000C946E0010
:100050000C946E000C946E000C946E000C946E0068
:100060000C946E000C946E00000000002400270029
:100070002A0000000000250028002B0004040404CE
:100080000404040402020202020203030303030342
:10009000010204081020408001020408102001021F
:1000A00004081020000000080002010000030407FB
:1000B000000000000000000011241FBECFEFD8E0B8
:1000C000DEBFCDBF21E0A0E0B1E001C01D92A930AC
:1000D000B207E1F70E9420010C948E010C940000FD
:1000E00090E0FC01EC55FF4F2491FC01E057FF4FDD
:1000F0003491FC01E458FF4FE491EE23B1F0222348
:1001000039F02330E9F090F4213001F1223011F17F
:10011000F0E0EE0FFF1FEE58FF4FA591B4918FB79F
:10012000F894EC913E2B3C938FBF08952730A9F0B3
:100130002830C9F0243061F7809180008F7D03C0A2
:10014000809180008F7780938000E2CF84B58F7795
:1001500084BDDECF84B58F7DFBCF8091B0008F77DB
:100160008093B000D5CF8091B0008F7DF9CF90E023
:10017000FC01E057FF4F249184589F4FFC0184916C
:10018000882399F090E0880F991FFC01E859FF4FF0
:10019000A591B491FC01EE58FF4F859194918FB7D2
:1001A000F894EC91E22BEC938FBF08951F920F927D
:1001B0000FB60F9211242F933F938F939F93AF937A
:1001C000BF938091050190910601A0910701B09124
:1001D00008013091040123E0230F2D3758F50196D3
:1001E000A11DB11D20930401809305019093060188
:1001F000A0930701B0930801809100019091010143
:10020000A0910201B09103010196A11DB11D80933F
:10021000000190930101A0930201B0930301BF91EB
:10022000AF919F918F913F912F910F900FBE0F90A3
:100230001F90189526E8230F0296A11DB11DD2CF5D
:10024000789484B5826084BD84B5816084BD85B5B1
:10025000826085BD85B5816085BD80916E008160BD
:1002600080936E0010928100809181008260809363
:100270008100809181008160809381008091800065
:100280008160809380008091B10084608093B10090
:100290008091B00081608093B00080917A0084608A
:1002A00080937A0080917A00826080937A008091B6
:1002B0007A00816080937A0080917A0080688093D0
:1002C0007A001092C10089E00E94B70088E00E9485
:1002D000B70087E00E94B70086E00E94B70085E083
:1002E0000E94B70084E00E94B70083E00E94B7003C
:1002F00082E00E94B70081E00E94B7008DE00E947A
:1003000070008CE00E9470008BE00E947000C0E0E2
:10031000D0E02097F1F30E940000FBCFF894FFCFCC
:00000001FF
